:100000000C9446000C9465000C9465000C946500FB
:100010000C9465000C9465000C9465000C946500CC
:100020000C9465000C9465000C9465000C946500BC
:100030000C9465000C9465000C9465000C946500AC
:100040000C9465000C9465000C941D010C946500E3
:100050000C9465000C9465000C9465000C9465008C
:100060000C9465000C9465000C9465000C9465007C
:100070000C9465000C9465000C942F010C946500A1
:100080000C9465000C9465000C94650011241FBE4F
:10009000CFEFD0E1DEBFCDBF11E0A0E0B1E0E2EEF6
:1000A000F4E000E00BBF02C007900D92AE31B10743
:1000B000D9F718E0AEE1B1E001C01D92A03FB10751
:1000C000E1F70E94DB000C946F020C940000109288
:1000D00090008FEC89B982E08BB988E98AB986E013
:1000E000809395000895109298008FEC809399006A
:1000F00082E080939B0088E980939A0086E0809359
:100100009D0008955D9BFECF8CB90895982F809136
:100110009B0085FFFCCF90939C000895FC010AC0D2
:100120005D9BFECF9CB980919B0085FFFCCF909397
:100130009C0031969081992399F707C080919B008C
:1001400085FFFCCF90939C00319690819923B1F765
:10015000089580911E01882369F110921E018091FB
:10016000EF088A3049F08D30A1F45D9BFECF8DE021
:100170008CB95D9BFECF06C05D9BFECF8DE08CB938
:100180005D9BFECF8AE08CB980E091E00E948E00FA
:1001900008958091EF085D9BFECF8CB95D9BFECFEB
:1001A0008DE08CB95D9BFECF8AE08CB980E091E058
:1001B0000E948E000895EF92FF920F931F93DF939A
:1001C000CF93CDB7DEB7C659D0400FB6F894DEBF97
:1001D0000FBECDBF109298003FEC3093990022E003
:1001E00020939B0098E990939A0086E080939D006D
:1001F0001092900039B92BB99AB9809395007894F0
:1002000080E091E00E948E0080E9E82E81E0F82EE7
:100210008E010F5F1F4F8CE091E00E948E0080E105
:1002200097E2F7013197F1F70197D9F78BB38095F2
:100230008BBBC8010E94A900EECF1F920F920FB690
:100240000F9211248F938CB18093EF0881E08093FB
:100250001E018F910F900FBE0F901F9018951F9247
:100260000F920FB60F9211248F9380919C00809370
:10027000EF088BB380958BBB81E080931E018F913B
:100280000F900FBE0F901F9018950895FC011082DB
:10029000118212821382148215821682178220879D
:1002A00031874287538775876487672B11F081E018
:1002B0000895108611861286138680E008956F9245
:1002C0007F928F929F92AF92BF92CF92DF92EF92E6
:1002D000FF920F931F93CF93DF93EC0139014A01F3
:1002E0008C859D85892BE9F1EE24FF24870132C09E
:1002F000A880B980CA80DB80A60195012F5F3F4F9F
:100300004F4F5F4F88859985AA85BB852817390788
:100310004A075B0721F420E030E040E050E08C81A8
:100320009D81AE81BF81281739074A075B07C9F055
:10033000EC85FD85EA0DFB1DDB01AE0DBF1D8C912B
:100340008083288339834A835B830894E11CF11CF2
:10035000011D111DE614F7040805190548F281E096
:1003600001C080E0DF91CF911F910F91FF90EF903E
:10037000DF90CF90BF90AF909F908F907F906F90C5
:1003800008956F927F928F929F92AF92BF92CF9279
:10039000DF92EF92FF920F931F93CF93DF93EC01C5
:1003A00039014A018C859D85892BE9F1AA24BB245A
:1003B000650132C02C813D814E815F8179018A01C6
:1003C0000894E11CF11C011D111D88859985AA85E1
:1003D000BB85E816F9060A071B0719F4EE24FF246B
:1003E000870188819981AA81BB81281739074A072B
:1003F0005B07C9F0FB01EA0DFB1DAC85BD85A20FB3
:10040000B31F8C918083EC82FD820E831F8308943E
:10041000A11CB11CC11CD11CA614B704C804D9046A
:1004200048F281E001C080E0DF91CF911F910F91F0
:10043000FF90EF90DF90CF90BF90AF909F908F9004
:100440007F906F900895EF92FF920F931F93FC019E
:1004500020853185428553856081718182819381B8
:10046000620F731F841F951FE480F580068117813A
:100470006E197F09800B910B0E944D021F910F9105
:10048000FF90EF900895FC01108211821282138276
:1004900014821582168217820895A1E21A2EAA1BD1
:1004A000BB1BFD010DC0AA1FBB1FEE1FFF1FA21724
:1004B000B307E407F50720F0A21BB30BE40BF50B21
:1004C000661F771F881F991F1A9469F760957095AA
:1004D000809590959B01AC01BD01CF010895F894E2
:0204E000FFCF4C
:1004E20041546D6167613132383E200048656C6C61
:0E04F2006F2041565220576F726C642100003B
:00000001FF
