:100000000C9446000C9465000C9465000C946500FB
:100010000C9465000C9465000C9465000C946500CC
:100020000C9465000C9465000C9465000C946500BC
:100030000C9465000C9465000C9465000C946500AC
:100040000C9465000C9465000C94E9000C94650018
:100050000C9465000C9465000C9465000C9465008C
:100060000C9465000C9465000C9465000C9465007C
:100070000C9465000C9465000C94FB000C946500D6
:100080000C9465000C9465000C94650011241FBE4F
:10009000CFEFD0E1DEBFCDBF11E0A0E0B1E0E6E2FE
:1000A000F2E000E00BBF02C007900D92AE31B10745
:1000B000D9F711E0AEE1B1E001C01D92A032B10765
:1000C000E1F70E94A4000C9411010C94000010921E
:1000D00090003FEC39B922E02BB998E99AB986E053
:1000E00080939500109298003093990020939B0084
:1000F00090939A0080939D0008955D9BFECF8CB9EC
:100100000895982F80919B0085FFFCCF90939C00D1
:100110000895FC010AC05D9BFECF9CB980919B00B5
:1001200085FFFCCF90939C0031969081992399F79D
:1001300007C080919B0085FFFCCF90939C00319677
:1001400090819923B1F708950F931F93CF93DF9375
:100150000E946700789480E091E00E948900C0E9E5
:10016000D1E00DE01AE08CE091E00E94890080E18E
:1001700097E2FE013197F1F70197D9F78BB380959C
:100180008BBB80911E01882371F310921E01809118
:100190001F018A3041F08D3061F45D9BFECF0CB9B8
:1001A0005D9BFECF10C05D9BFECF0CB95D9BFECF6B
:1001B0000AC080911F015D9BFECF8CB95D9BFECF75
:1001C0000CB95D9BFECF1CB980E091E00E948900D4
:1001D000CACF1F920F920FB60F9211248F938CB13A
:1001E00080931F0181E080931E018F910F900FBEBD
:1001F0000F901F9018951F920F920FB60F92112417
:100200008F9380919C0080931F018BB380958BBB53
:1002100081E080931E018F910F900FBE0F901F9071
:060220001895F894FFCFD1
:1002260041546D6167613132383E200048656C6C1F
:0E0236006F2041565220576F726C64210000F9
:00000001FF
