:100000000C9446000C94AB010C94B5010C94650063
:100010000C9465000C9465000C9465000C946500CC
:100020000C9465000C9465000C949D010C94650083
:100030000C9465000C9465000C9465000C946500AC
:100040000C943F010C9465000C94DD000C94650049
:100050000C9465000C9465000C9465000C9465008C
:100060000C9465000C9465000C9465000C9465007C
:100070000C9465000C9465000C94EF000C946500E2
:100080000C9465000C9465000C94650011241FBE4F
:10009000CFEFD0E1DEBFCDBF11E0A0E0B1E0E6EDF3
:1000A000F5E000E00BBF02C007900D92A232B1074D
:1000B000D9F718E0A2E2B1E001C01D92A93FB10753
:1000C000E1F70E9410010C94E9020C94000078946E
:1000D0000895109290008FEC89B982E08BB988E97D
:1000E0008AB986E0809395000895109298008FEC6D
:1000F0008093990082E080939B0088E980939A0026
:1001000086E080939D0008955D9BFECF8CB9089595
:10011000982F80919B0085FFFCCF90939C000895C1
:10012000FC010AC05D9BFECF9CB980919B0085FFBE
:10013000FCCF90939C0031969081992399F707C04A
:1001400080919B0085FFFCCF90939C00319690811D
:100150009923B1F7089580912801882369F11092BD
:100160002801809127018A3049F08D30A1F45D9BF0
:10017000FECF8DE08CB95D9BFECF06C05D9BFECFB0
:100180008DE08CB95D9BFECF8AE08CB980E091E078
:100190000E9490000895809127015D9BFECF8CB94D
:1001A0005D9BFECF8DE08CB95D9BFECF8AE08CB964
:1001B00080E091E00E94900008951F920F920FB688
:1001C0000F9211248F938CB18093270181E080934B
:1001D00028018F910F900FBE0F901F9018951F92BE
:1001E0000F920FB60F9211248F9380919C008093F1
:1001F00027018BB380958BBB81E0809328018F9181
:100200000F900FBE0F901F90189597E093BF80E757
:1002100082BF95BD84BD81E487BF80E486BF089519
:10022000109298003FEC3093990022E020939B00BD
:1002300098E990939A0086E080939D001092900038
:1002400039B92BB99AB98093950078940E94050129
:1002500080E091E00E94900028EE33E040E951E018
:1002600005C0CA010197F1F7215030402115310531
:10027000C1F78BB380958BBB28EE33E0F2CF1F9292
:100280000F920FB60F920BB60F9211242F933F933C
:100290004F935F936F937F938F939F93AF93BF938E
:1002A000EF93FF93DF93CF930F92CDB7DEB780919B
:1002B0002201815080932201809124018F5F8093DD
:1002C000240180912201882301F584E68093220194
:1002D000809123018F5F809323011092240188B3C2
:1002E000809588BB19828CE091E00E94900025B334
:1002F00080919B0085FFFCCFCE01019680939C00EE
:1003000029838FE191E00E94900080E782BF0F90E7
:10031000CF91DF91FF91EF91BF91AF919F918F911D
:100320007F916F915F914F913F912F910F900BBEF5
:100330000F900FBE0F901F9018951F920F920FB63F
:100340000F9211248F9380E784BD8F910F900FBE81
:100350000F901F9018951F920F920FB60F921124B5
:100360000F900FBE0F901F9018951F920F920FB60F
:100370000F9211240F900FBE0F901F9018950895A3
:10038000FC0110821182128213821482158216825D
:100390001782208731874287538775876487672B49
:1003A00011F081E00895108611861286138680E090
:1003B00008956F927F928F929F92AF92BF92CF9249
:1003C000DF92EF92FF920F931F93CF93DF93EC0195
:1003D00039014A018C859D85892BE9F1EE24FF24A2
:1003E000870132C0A880B980CA80DB80A601950150
:1003F0002F5F3F4F4F4F5F4F88859985AA85BB85FB
:10040000281739074A075B0721F420E030E040E075
:1004100050E08C819D81AE81BF81281739074A0742
:100420005B07C9F0EC85FD85EA0DFB1DDB01AE0D18
:10043000BF1D8C918083288339834A835B83089412
:10044000E11CF11C011D111DE614F7040805190536
:1004500048F281E001C080E0DF91CF911F910F91C0
:10046000FF90EF90DF90CF90BF90AF909F908F90D4
:100470007F906F9008956F927F928F929F92AF922C
:10048000BF92CF92DF92EF92FF920F931F93CF9381
:10049000DF93EC0139014A018C859D85892BE9F1B7
:1004A000AA24BB24650132C02C813D814E815F812D
:1004B00079018A010894E11CF11C011D111D888538
:1004C0009985AA85BB85E816F9060A071B0719F462
:1004D000EE24FF24870188819981AA81BB81281796
:1004E00039074A075B07C9F0FB01EA0DFB1DAC8524
:1004F000BD85A20FB31F8C918083EC82FD820E8399
:100500001F830894A11CB11CC11CD11CA614B704E4
:10051000C804D90448F281E001C080E0DF91CF91A6
:100520001F910F91FF90EF90DF90CF90BF90AF9011
:100530009F908F907F906F900895EF92FF920F930E
:100540001F93FC012085318542855385608171812F
:1005500082819381620F731F841F951FE480F58051
:10056000068117816E197F09800B910B0E94C702CB
:100570001F910F91FF90EF900895FC01108211825E
:100580001282138214821582168217820895A1E2C4
:100590001A2EAA1BBB1BFD010DC0AA1FBB1FEE1FFD
:1005A000FF1FA217B307E407F50720F0A21BB30B48
:1005B000E40BF50B661F771F881F991F1A9469F7C4
:1005C00060957095809590959B01AC01BD01CF0120
:0605D0000895F894FFCF2E
:1005D60041546D6167613132383E200048656C6C6C
:1005E6006F2041565220576F726C64210D0A000D20
:0205F6000A00F9
:00000001FF
