:100000000C94CE240C94ED240C94ED240C94ED244B
:100010000C94ED240C94ED240C94ED240C94ED241C
:100020000C94ED240C94ED240C94ED240C94ED240C
:100030000C9461410C94ED240C94ED240C94ED246B
:100040000C94ED240C94ED240C94ED240C94ED24EC
:100050000C94ED240C94ED240C94ED240C94ED24DC
:100060000C94ED240C94ED240C94ED240C94ED24CC
:100070000C94ED240C94ED240C94ED240C94ED24BC
:100080000C94ED240C94ED240C94ED2405A84CCD97
:10009000B2D44EB93836A9020C50B9918688083CC2
:1000A000A6AAAA2ABE000000803F000001020304A5
:1000B00005060708090A0B0C0D0E0F10111213008C
:1000C000000001020304050000060708090A0B00EE
:1000D000000C0D0E0F10110000121314150000017A
:1000E00002030405060708090A0B0C0D0E0F100089
:1000F0001112131415161718191A1B00000000000E
:1001000000000000010303030102040404020103D0
:100110000000050505050505050506070707060690
:100120000707070606070500000200020102010298
:1001300003000201030301020103030101000000A7
:1001400000000000000000000000000000000000AF
:100150000000000000000000000000000000000897
:10016000080888C87838000000000000000000027D
:10017000020101000000000000000000000008086B
:10018000C8F838C8F838000000000000000002017C
:10019000010201010000000000000000000008F85A
:1001A000F800000000000000000000000000000156
:1001B000030202020202020000000000000008F830
:1001C000F808080808000000000000000000000116
:1001D000030202020202000000000000000008F812
:1001E000F808F8F80808000000000000000000010E
:1001F000030201030202020000000000000000C828
:10020000C84848487878000000000000000000015D
:10021000030202020202020000000000000008F8CF
:10022000F8080808F8F800000000000000000003CB
:10023000030202020303000000000000000010F0AF
:10024000F0404048F8F80000000000000000000303
:100250000302020203030000000000000010F0F09F
:1002600040F0F048F8F80000000000000000030330
:10027000020303020303000000000000000000006E
:1002800000C47CFC800000000000000000000202AE
:10029000010100000103020000000000000000F85E
:1002A00078808078F8000000000000000002030160
:1002B0000003030001030200000000000000E0F062
:1002C00018080818F0E0000000000000000000011D
:1002D0000302020301000000000000000000080803
:1002E0000888C87838000000000000000000020202
:1002F0000101000103020000000000000000088866
:10030000C8F8B8C8F8380000000000000002030177
:1003100002030100010302000000000000001010B1
:100320001494D4F430000000000000000000020229
:100330000101000103020000000000000000282865
:100340002828A8E878380000000000000000020219
:10035000020101000000000000000000000008F899
:10036000F84848484848000000000000000000012C
:10037000030202020202020000000000000808F866
:10038000F80808F8F808080000000000000202035E
:10039000030202030302020000000000000008C87C
:1003A000E82C2C2CE8C80800000000000000000128
:1003B0000302020203010000000000000000000030
:1003C000000000000000000000000000000000002D
:1003D000000000000000000000000000000000001D
:1003E00004040404040404FC7C0000000000000079
:1003F00000000000000000000000000000000000FD
:10040000040404FC7C040404FC7C000000000000E4
:1004100000000000000000000000000000000004D8
:100420003C7C404040404040404000000000000014
:1004300000000000000000000000000000000004B8
:100440003C7C444444444444440000000000000018
:100450000000000000000000000000000000000498
:100460003C7C4444443C7C44444400000000000084
:10047000000000000000000000000000000000007C
:1004800034745454545454545C5C00000000000014
:100490000000000000000000000000000000000458
:1004A0007C7C44444444447C7C0000000000000008
:1004B0000000000000000000000000000000000438
:1004C0007C7C50505050547C7C00000000000000A8
:1004D0000000000000000000000000000000000418
:1004E0007C7C50507C7C50507C7C000000000000E4
:1004F000000000000000000000000000000000807C
:10050000804060341C1C102060C08000000000008F
:10051000000000000000000000000000000080C09B
:10052000603C1CB0C0603C3C60C08000000000002B
:1005300000000000000000000000000000000000BB
:10054000387C44444444447C3800000000000000EF
:10055000000000000000000000000000000000801B
:100560008444442424143C2C44C080000000000037
:100570000000000000000000000000000000004437
:1005800064341C1C64641C1C3464400000000000C3
:1005900000000000000000000000000000000080DB
:1005A0008848486A3A1A3A2848C880000000000083
:1005B000000000000000000000000000000000003B
:1005C0002424242424242424FCFC00000000000013
:1005D0000000000000000000010000000000000416
:1005E0003C7C5454545454545454000000000000B3
:1005F00000000000000000000000000000000000FB
:1006000044447C7C44447C7C444400000000000062
:1006100000000000000000000000000000000000DA
:1006200004347C4E4E4E4E7C34040000000000002A
:1006300000000000000000000000000000000000BA
:1006400000000000000000000000000000000000AA
:10065000000000000000000000000000000000009A
:1006600004040404040404FC7C00000000000000F6
:10067000000000000000000000000000000000007A
:100680000404047C3C0404047C3C000000000000E2
:100690000000000000000000000000000000000456
:1006A0003C7C404040404040404000000000000092
:1006B0000000000000000000000000000000000436
:1006C0003C7C444444444444440000000000000096
:1006D0000000000000000000000000000000000416
:1006E0003C7C4444443C7C44444400000000000002
:1006F00000000000000000000000000000000000FA
:1007000034745454545454545C5C00000000000091
:1007100000000000000000000000000000000004D5
:100720007C7C44444444447C7C0000000000000085
:1007300000000000000000000000000000000004B5
:100740007C7C50505050547C7C0000000000000025
:100750000000000000000000000000000000000495
:100760007C7C50507C7C50507C7C00000000000061
:100770000000000000000000000000000000004039
:100780004020301A0E0E08103060400000000000BB
:1007900000000000000000000000000000004060B9
:1007A000301E0E1860180E1E306040000000000061
:1007B0000000000000000000000000000000000039
:1007C000001C3E222222223E1C00000000000000ED
:1007D00000000000000000000000000000000040D9
:1007E00042222212120A1E1622604000000000005F
:1007F00000000000000000000000000000000044B5
:1008000064341C1C64641C1C346440000000000040
:100810000000000000000000000000000000004098
:10082000442424361E0E1E142464400000000000E0
:1008300000000000000000000000000000000000B8
:100840002424242424242424FC7C00000000000010
:100850000000000000000000000000000000000494
:100860003C7C545454545454545400000000000030
:100870000000000000000000000000000000000078
:1008800044447C7C44447C7C4444000000000000E0
:100890000000000000000000000000000000000058
:1008A00004347C4E4E4E4E7C3404000000000000A8
:1008B0000000000000000000000000000000000038
:1008C0000000000000000000000000000000000028
:1008D0000000000000000000000000000000000414
:1008E00004040404FC7C0000000000000000000080
:1008F00000000000000000000000000000000004F4
:1009000004FC7C0404FC7C000000000000000000EB
:100910000000000000000000000000000000043C97
:100920007C404040404040000000000000000000CB
:100930000000000000000000000000000000043C77
:100940007C444444444400000000000000000000D7
:100950000000000000000000000000000000043C57
:100960007C44443C7C444400000000000000000043
:100970000000000000000000000000000000003443
:10098000745454545C5C000000000000000000003F
:100990000000000000000000000000000000047CD7
:1009A0007C4444447C7C0000000000000000000007
:1009B0000000000000000000000000000000047CB7
:1009C0007C5050547C7C00000000000000000000BF
:1009D0000000000000000000000000000000047C97
:1009E0007C507C7C507C7C000000000000000000FB
:1009F0000000000000000000000000000000804037
:100A000060341C1C2060C08000000000000000005A
:100A1000000000000000000000000000000080C096
:100A20007C3CE0E03C7CC080000000000000000056
:100A3000000000000000000000000000000000387E
:100A40007C4444447C3800000000000000000000AA
:100A50000000000000000000000000000000004452
:100A60004424341C2C6440000000000000000000FE
:100A700000000000000000000000000000004064D2
:100A8000343C6C343C6C440000000000000000006A
:100A900000000000000000000000000000000088CE
:100AA000884C6C3C58C8800000000000000000002A
:100AB0000000000000000000000000000000001422
:100AC0001414141414FC7C0000000000000000004A
:100AD0000000000000000000000000000000043CD6
:100AE0007C545454545400000000000000000000E6
:100AF00000000000000000000000000000000044B2
:100B00007C7C44447C7C4400000000000000000029
:100B1000000000000000000000000000000004349D
:100B20007C4E4E4E7C3404000000000000000000AB
:100B300000000000000000000000000000000000B5
:100B400000000000000000000000000000000000A5
:100B50000000000000000000000000000000000491
:100B600004040404FC7C00000000000000000000FD
:100B7000000000000000000000000000000004046D
:100B80007C3C04047C3C00000000000000000000ED
:100B90000000000000000000000000000000043C15
:100BA0007C40404040400000000000000000000089
:100BB0000000000000000000000000000000043CF5
:100BC0007C44444444440000000000000000000055
:100BD0000000000000000000000000000000043CD5
:100BE0007C44443C7C4444000000000000000000C1
:100BF00000000000000000000000000000000034C1
:100C0000745454545C5C00000000000000000000BC
:100C10000000000000000000000000000000047C54
:100C20007C4444447C7C0000000000000000000084
:100C30000000000000000000000000000000047C34
:100C40007C5050547C7C000000000000000000003C
:100C50000000000000000000000000000000047C14
:100C60007C507C7C507C7C00000000000000000078
:100C70000000000000000000000000000000402014
:100C8000301A0E0E1030600000000000000000005E
:100C900000000000000000000000000000004060B4
:100CA0003C1C70701C3C6040000000000000000014
:100CB00000000000000000000000000000000038FC
:100CC0007C4444447C380000000000000000000028
:100CD0000000000000000000000000000000404490
:100CE0002424141C2C6440000000000000000000BC
:100CF000000000000000000000000000000044644C
:100D0000343C6C743C6C44000000000000000000A7
:100D1000000000000000000000000000000044444B
:100D20002426161E2C644000000000000000000075
:100D3000000000000000000000000000000000149F
:100D400014141414FC7C00000000000000000000DB
:100D50000000000000000000000000000000043C53
:100D60007C54545454540000000000000000000063
:100D70000000000000000000000000000000447CB3
:100D80007C44447C7C440000000000000000000023
:100D9000000000000000000000000000000004341B
:100DA0007C4E4E4E7C340400000000000000000029
:100DB0000000000000000000000000000000000033
:100DC0000000000000000000000000000000000023
:100DD000000000000000000000000000000000040F
:100DE0000484C4643C1C00000000000000000001FA
:100DF000010000000000000000000000000004846A
:100E0000E47C9CE47C1C0000000000000000010069
:100E10000001000000000000000000000000047C51
:100E2000FC80808080800000000000000000000046
:100E30000000000000000000000000000000047C32
:100E4000FC84848484800000000000000000000016
:100E50000000000000000000000000000000047C12
:100E6000FC847CFC84848000000000000000000002
:100E7000000000000000000000000000000000E48E
:100E8000E42424243C3C000000000000000000009A
:100E9000010101010101010000000000000004FC4B
:100EA000FC848484FCFC00000000000000000000C2
:100EB000000000000000000000000000000004FC32
:100EC000FC909094FCFC000000000000000000007A
:100ED0000000000000000000000000000004FCFC16
:100EE00090FCFC90FCFC00000000000000000000F2
:100EF00000000000000000000000000000000000F2
:100F000080E43C7CC0800000000000000000010183
:100F1000000000000001010000000000000080C08F
:100F20007C1CE01C7CC08000000000000000000071
:100F30000000000000000000000000000000007839
:100F4000FC848484FC7800000000000000000000A5
:100F5000000000000000000000000000000000840D
:100F6000844464345CCC8000000000000000000079
:100F7000000000000000000000000000000084C429
:100F800064FCDC64FC9C0000000000000000000029
:100F9000010100000001010000000000000008083D
:100FA0008CCC6CF8980000000000000000000101EB
:100FB000000000000101000000000000000000141B
:100FC0001494D4743C1C00000000000000000001D8
:100FD000010000000000000000000000000004FC10
:100FE000FC24242424000000000000000000000075
:100FF000010101010101000000000000000084FC6B
:10100000FC8484FCFC8484000000000000000000DC
:101010000000000000000000000000000000047458
:10102000FC8E8EFC74040000000000000000000034
:1010300000000000000000000000000000000000B0
:1010400000000000000000000000000000000000A0
:101050000000000000000000000000000000000090
:1010600004040404040404047C3C000000000000A8
:10107000000000000000000000000000000000046C
:1010800004047C3C040404047C3C000000000000D8
:10109000000000000000000000000000000000044C
:1010A0001C3C2020202020202020000000000000E8
:1010B000000000000000000000000000000000042C
:1010C0001C3C2424242424242424000000000000A8
:1010D000000000000000000000000000000000040C
:1010E0001C3C2424241C3C24242400000000000078
:1010F00000000000000000000000000000000000F0
:1011000034745454545454545C5C00000000000087
:1011100000000000000000000000000000000000CF
:10112000043C3C24242424243C3C00000000000017
:1011300000000000000000000000000000000004AB
:101140007C7C5050505050547C7C000000000000CB
:10115000000000000000000000000000000000048B
:101160007C7C50507C7C50507C7C00000000000057
:10117000000000000000000000000000000000402F
:101180004020301A0E0E08103060400000000000B1
:1011900000000000000000000000000000004060AF
:1011A000301E0E5870301E1E3060400000000000DF
:1011B000000000000000000000000000000000002F
:1011C00000387C444444447C3800000000000000A7
:1011D000000000000000000000000000000000000F
:1011E0004444442424143C2C4440000000000000EB
:1011F00000000000000000000000000000000044AB
:1012000064341C1C64641C1C346440000000000036
:1012100000000000000000000000000000000000CE
:10122000444424341E0E1E342444400000000000B8
:1012300000000000000000000000000000000000AE
:1012400014141414141414147C3C00000000000046
:10125000000000000000000000000000000000048A
:101260003C7C545454545454545400000000000026
:10127000000000000000000000000000000000006E
:1012800044447C7C44447C7C4444000000000000D6
:10129000000000000000000000000000000000004E
:1012A00004347C4E4E4E4E7C34040000000000009E
:1012B000000000000000000000000000000000002E
:1012C000000000000000000000000000000000001E
:1012D000000000000000000000000000000000040A
:1012E000040404047C3C0000000000000000000036
:1012F00000000000000000000000000000000404E6
:101300007C3C04047C3C0000000000000000000065
:101310000000000000000000000000000000043C8D
:101320007C40404040400000000000000000000001
:101330000000000000000000000000000000043C6D
:101340007C444444444400000000000000000000CD
:101350000000000000000000000000000000043C4D
:101360007C44443C7C444400000000000000000039
:101370000000000000000000000000000000003439
:10138000745454545C5C0000000000000000000035
:101390000000000000000000000000000000047CCD
:1013A0007C4444447C7C00000000000000000000FD
:1013B0000000000000000000000000000000047CAD
:1013C0007C5050547C7C00000000000000000000B5
:1013D0000000000000000000000000000000047C8D
:1013E0007C507C7C507C7C000000000000000000F1
:1013F000000000000000000000000000000040208D
:10140000301A0E0E103060000000000000000000D6
:10141000000000000000000000000000000040602C
:101420003C1C70701C3C604000000000000000008C
:101430000000000000000000000000000000003874
:101440007C4444447C3800000000000000000000A0
:101450000000000000000000000000000000404408
:101460002424141C2C644000000000000000000034
:1014700000000000000000000000000000004464C4
:10148000343C6C343C6C4400000000000000000060
:1014900000000000000000000000000000004444C4
:1014A0002426161E2C6440000000000000000000EE
:1014B0000000000000000000000000000000001418
:1014C00014141414FC7C0000000000000000000054
:1014D0000000000000000000000000000000043CCC
:1014E0007C545454545400000000000000000000DC
:1014F0000000000000000000000000000000447C2C
:101500007C44447C7C44000000000000000000009B
:101510000000000000000000000000000000043493
:101520007C4E4E4E7C3404000000000000000000A1
:1015300000000000000000000000000000000000AB
:10154000000000000000000000000000000000009B
:10155000000000000000000000000000000000008B
:101560000000000000000002FEFE404040000000BD
:1015700000000000000000007F3F000000000000AD
:1015800000000000000004FCFC42FEFE0000000021
:10159000000000000000003F1F007F3F000000002F
:1015A0000000000000000002FEFE202020000000DD
:1015B00000000000000000007F3F0101010000006A
:1015C00000000000000004FCFC22FEFE0000000001
:1015D000000000000000003F1F017F3F00000000EE
:1015E000000000000000404042FEFE00000000003D
:1015F0000000000000000000007F3F00000000002D
:1016000000000000004044FCFC02FEFE0000000060
:10161000000000000000003F1F007F3F00000000AE
:10162000000000000000A0A0A2FEFE0000000000DC
:101630000000000000000000007F3F0000000000EC
:1016400000000000A0A0A4FCFC02FEFE00000000C0
:10165000000000000000003F1F007F3F000000006E
:10166000000000000000000000000000000008086A
:10167000080808080F0F08080808080800000000FC
:101680000000000000000002FEFE808080000404D4
:1016900004070704040404007F3F0000000000006A
:1016A00000000000000004FCFC42FEFE00000404F8
:1016B000070704040404003F1F007F3F00000000F0
:1016C000000000000000000002FEFE000000040414
:1016D0000407070404040404007F3F000000000026
:1016E00000000000000000000000000000000808EA
:1016F000080F0F0808090F0F08080808000000006D
:1017000000000000000000000000000000000101D7
:10171000010101017F3F0101010101010000000001
:10172000000000000000000002FEFE0000000101B9
:1017300001013F1F01010505047F3F00000000007B
:1017400000000000000004FCFC02FEFE000001019D
:10175000013F1F010505043F1F007F3F00000000FF
:10176000000000000000000002FEFE000000010179
:1017700001013F1F01010101007F3F000000000047
:101780000000000000000000000000000000010157
:1017900001017F3F01017F3F0101010100000000C5
:1017A0000000000000000000000000000000080829
:1017B00008080808080808080808080800000000C9
:1017C000000000000000000002FEFE000000040413
:1017D0000404040404020202007F3F000000000031
:1017E000000000000000000002FEFE0000000000FB
:1017F0000000000000000000007F3F00000000002B
:1018000000000000000000000000000000000000D8
:1018100000000000000000000000000000000000C8
:101820000000000000000002FEFE404040000000FA
:1018300000000000000000007F3F000000000000EA
:1018400000000000000004FCFC42FEFE000000005E
:10185000000000000000003F1F007F3F000000006C
:101860000000000000000002FEFE2020200000001A
:1018700000000000000000007F3F010101000000A7
:1018800000000000000004FCFC22FEFE000000003E
:10189000000000000000003F1F017F3F000000002B
:1018A000000000000000404042FEFE00000000007A
:1018B0000000000000000000007F3F00000000006A
:1018C00000000000000044FCFC02FEFE00000000DE
:1018D000000000000000003F1F007F3F00000000EC
:1018E000000000000000A0A0A2FEFE00000000001A
:1018F0000000000000000000007F3F00000000002A
:10190000000000000000A4FCFC02FEFE000000003D
:10191000000000000000003F1F007F3F00000000AB
:1019200000000000000000000000000000000808A7
:10193000080808080F0F0808080808080000000039
:101940000000000000000002FEFE80808000040411
:1019500004070704040404007F3F000000000000A7
:1019600000000000000004FCFC42FEFE0000040435
:10197000040707040404003F1F007F3F000000002D
:10198000000000000000000002FEFE000000040451
:101990000407070404040404007F3F000000000063
:1019A0000000000000000000000000000000080827
:1019B00008080F0F08080F0F0808080800000000AB
:1019C0000000000000000000000000000000010115
:1019D000010101017F3F010101010101000000003F
:1019E000000000000000000002FEFE0000000101F7
:1019F00001013F1F01010505047F3F0000000000B9
:101A000000000000000004FCFC02FEFE00000101DA
:101A1000011F0F010505043F1F007F3F000000006C
:101A2000000000000000000002FEFE0000000101B6
:101A300001013F1F01010101007F3F000000000084
:101A40000000000000000000000000000000010194
:101A500001017F3F01017F3F010101010000000002
:101A60000000000000000000000000000000080866
:101A70000808080808080808080808080000000006
:101A8000000000000000000002FEFE000000040450
:101A90000404040404020202007F3F00000000006E
:101AA000000000000000000002FEFE000000000038
:101AB0000000000000000000007F3F000000000068
:101AC0000000000000000000000000000000000016
:101AD0000000000000000000000000000000000006
:101AE0000000000000000002FEFE20202000000098
:101AF00000000000000000000301000000000000E2
:101B000000000000000004FCFC22FEFE00000000BB
:101B100000000000000000030100030100000000BD
:101B20000000000000000002FEFE505050000000C7
:101B300000000000000000000301000000000000A1
:101B400000000000000004FCFC52FEFE000000004B
:101B5000000000000000000301000301000000007D
:101B6000000000000020202022FEFE0000000000F7
:101B70000000000000000000000301000000000061
:101B800000000000002024FCFC02FEFE000000001B
:101B9000000000000000000301000301000000003D
:101BA000000000000000505052FEFE000000000047
:101BB0000000000000000000000301000000000021
:101BC00000000000005054FCFC02FEFE000000007B
:101BD00000000000000000030100030100000000FD
:101BE00000000000C0C00000000000000000010173
:101BF00001010101010101010101010100000000D9
:101C000000C0C00000000002FEFE202020000101F4
:101C100001010101010101000301000000000000B9
:101C2000C0C00000000004FCFC22FEFE0000010118
:101C30000101010101010001000003010000000099
:101C400000C0C0000000000002FEFE000000010114
:101C50000101010101010101000301000000000078
:101C600000C0C0000000C0C0000000000000010172
:101C70000101010101010101010101010000808058
:101C80008080808080808080808080800000000054
:101C900000000000070300000000000000004040BA
:101CA0004040C0C04040404004FCFC000000000038
:101CB000000007030000010101070300000000000D
:101CC00000000000004044FCFC02FEFE0000010198
:101CD0000107030101010007030007030000008062
:101CE00080808080808080800002FEFE00000000F6
:101CF00000000303000000000000030100000000DA
:101D000000000000000000000000000000000101D1
:101D1000010107070101070701010101000000009F
:101D200000000000000000000000000000000101B1
:101D30000101010101010101010101010000000097
:101D4000000000000000000002FEFE000000010193
:101D50000101010101010101000301000000000077
:101D6000000000000000000002FEFE000000000075
:101D7000000000000000000000030100000000005F
:101D80000000000000000000000000000000000053
:101D90000000000000000000000000000000000043
:101DA0000000000000000002FEFE202020000000D5
:101DB000000000000000000003010000000000001F
:101DC00000000000000004FCFC22FEFE00000000F9
:101DD00000000000000000030100030100000000FB
:101DE0000000000000000002FEFE50505000000005
:101DF00000000000000000000301000000000000DF
:101E000000000000000004FCFC52FEFE0000000088
:101E100000000000000000030100030100000000BA
:101E2000000000000000202022FEFE000000000054
:101E3000000000000000000000030100000000009E
:101E400000000000000024FCFC02FEFE0000000078
:101E5000000000000000000301000301000000007A
:101E6000000000000000505052FEFE000000000084
:101E7000000000000000000000030100000000005E
:101E800000000000000054FCFC02FEFE0000000008
:101E9000000000000000000301000301000000003A
:101EA00000000000C0C000000000000000000101B0
:101EB0000101010101010101010101010000000016
:101EC00000C0C00000000002FEFE20202000010132
:101ED00001010101010101000301000000000000F7
:101EE00000C0C000000004FCFC22FEFE0000010156
:101EF00001010101010100010000030100000000D7
:101F000000C0C0000000000002FEFE000000010151
:101F100001010101010101010003010000000000B5
:101F20000000C0C00000C0C00000000000000101AF
:101F30000101010101010101010101010000000095
:101F4000000000000000000000000000000001018F
:101F500001010101070701010101010100000080E9
:101F600080808080808080800002FEFE0000000073
:101F70000000030300000000010103030000808053
:101F80008080808080A024FCFC02FEFE0000000017
:101F900000030100000000030100030100000080B5
:101FA00080808080808080800002FEFE0000000033
:101FB0000000030300000000000003010000000017
:101FC000000000000000000000000000000001010F
:101FD00001010707010107070101010100000000DD
:101FE00000000000000000000000000000000101EF
:101FF00001010101010101010101010100000000D5
:10200000000000000000000002FEFE0000000101D0
:1020100001010101010101010003010000000000B4
:10202000000000000000000002FEFE0000000000B2
:10203000000000000000000000030100000000009C
:102040000000000000000000000000000000000090
:102050000000000000000000000000000000000080
:102060000000000000000000000000000000000070
:1020700000040404040404047C3C0000000000008C
:102080000000000000000000000000000000000050
:102090000404047C3C0404047C3C000000000000B8
:1020A0000000000000000000000000000000000030
:1020B0000404047C3C40603C1C7060000000000094
:1020C0000000000000000000000000000000000010
:1020D0000000043C7C4040404040400000000000C4
:1020E00000000000000000000000000000000000F0
:1020F000043C7C404044643C3C64440000000000DC
:1021000000000000000000000000000000000000CF
:10211000043C7C404028785C5C782800000000008B
:1021200000000000000000000000000000000000AF
:1021300000043C7C4444444444440000000000004B
:10214000000000000000000000000000000000008F
:1021500000347454545454545C5C0000000000007B
:10216000000000000000000000000000000000006F
:102170003474545C5C0004047C3C000000000000EB
:10218000000000000000000000000000000000004F
:102190003474545C5C007C7C447C7C000000000057
:1021A000000000000000000000000000000000002F
:1021B0003474545C5C007C7C507C7C00000000002B
:1021C000000000000000000000000000000000000F
:1021D000003474545C5C00603C3C604000000000D3
:1021E00000000000000000000000000000000000EF
:1021F0003474545C5C007C7C545454000000000037
:1022000000000000000000000000000000000000CE
:102210003474545C18447C7C447C7C440000000092
:1022200000000000000000000000000000000000AE
:102230003474545C5C0028785C5C782800000000F2
:10224000000000000000000000000000000000008E
:1022500000047C7C444444447C7C0000000000007A
:10226000000000000000000000000000000000006E
:1022700000047C7C505050547C7C00000000000026
:10228000000000000000000000000000000000004E
:10229000007C7C507C7C40603C3C60600000000026
:1022A000000000000000000000000000000000002E
:1022B00000404020301C0C10306040000000000046
:1022C000000000000000000000000000000000000E
:1022D0004060301C5C70301C1C306040000000000E
:1022E00000000000000000000000000000000000EE
:1022F0000000387C444444447C3800000000000066
:1023000000000000000000000000000000000000CD
:1023100000444424341C1C342444440000000000C5
:1023200000000000000000000000000000000000AD
:1023300000484828381C1C38284848000000000085
:10234000000000000000000000000000000000008D
:1023500000001414141414147C3C0000000000004D
:10236000000000000000000000000000000000006D
:1023700000043C7C545454545454000000000000A9
:10238000000000000000000000000000000000004D
:102390000044447C7C44447C7C44440000000000B5
:1023A000000000000000000000000000000000002D
:1023B000000828785C5C5C5C78280800000000005D
:1023C000000000000000000000000000000000000D
:1023D00000000000000000000000000000000000FD
:1023E00000000000000000000000000000000000ED
:1023F0000000040404040404047C3C000000000009
:1024000000000000000000000000000000000000CC
:10241000000404047C3C0404047C3C000000000034
:1024200000000000000000000000000000000000AC
:10243000000404047C3C40603C1C70600000000010
:10244000000000000000000000000000000000008C
:102450000000043C7C404040404040000000000040
:10246000000000000000000000000000000000006C
:1024700000043C7C404044643C3C64440000000058
:10248000000000000000000000000000000000004C
:1024900000043C7C404028785C5C78280000000008
:1024A000000000000000000000000000000000002C
:1024B0000000043C7C4444444444440000000000C8
:1024C000000000000000000000000000000000000C
:1024D0000000347454545454545C5C0000000000F8
:1024E00000000000000000000000000000000000EC
:1024F000003474545C5C0004047C3C000000000068
:1025000000000000000000000000000000000000CB
:102510003474545C5C007C7C447C7C0000000000D3
:1025200000000000000000000000000000000000AB
:102530003474545C5C007C7C507C7C0000000000A7
:10254000000000000000000000000000000000008B
:10255000003474545C5C00603C3C6040000000004F
:10256000000000000000000000000000000000006B
:102570003474545C5C007C7C5454540000000000B3
:10258000000000000000000000000000000000004B
:102590003474545C18447C7C447C7C44000000000F
:1025A000000000000000000000000000000000002B
:1025B0003474545C5C0028785C5C7828000000006F
:1025C000000000000000000000000000000000000B
:1025D0000000047C7C444444447C7C0000000000F7
:1025E00000000000000000000000000000000000EB
:1025F0000000047C7C505050547C7C0000000000A3
:1026000000000000000000000000000000000000CA
:10261000007C7C507C7C40603C3C606000000000A2
:1026200000000000000000000000000000000000AA
:1026300000404020301C0C103060400000000000C2
:10264000000000000000000000000000000000008A
:10265000004060301C5C70301C1C3060400000008A
:10266000000000000000000000000000000000006A
:10267000000000387C444444447C380000000000E2
:10268000000000000000000000000000000000004A
:1026900000444424341C1C34244444000000000042
:1026A000000000000000000000000000000000002A
:1026B00000484828381C1C38284848000000000002
:1026C000000000000000000000000000000000000A
:1026D0000000001414141414147C3C0000000000CA
:1026E00000000000000000000000000000000000EA
:1026F0000000043C7C545454545454000000000026
:1027000000000000000000000000000000000000C9
:102710000044447C7C44447C7C4444000000000031
:1027200000000000000000000000000000000000A9
:1027300000000828785C5C5C5C78280800000000D9
:102740000000000000000000000000000000000089
:102750000000000000000000000000000000000079
:102760000000000000000000000000000000000069
:10277000000004040404040404047C3C0000000081
:102780000000000000000000000000000000000049
:1027900000040404047C3C0404047C3C00000000AD
:1027A0000000000000000000000000000000000029
:1027B00000040404047C3C40603C1C706000000089
:1027C0000000000000000000000000000000000009
:1027D0000000043C7C40404040404040000000007D
:1027E00000000000000000000000000000000000E9
:1027F000043C7C40400044643C3C644400000000D5
:1028000000000000000000000000000000000000C8
:10281000043C7C40404028785C5C78280000000044
:1028200000000000000000000000000000000000A8
:102830000000043C7C444444444444000000000044
:102840000000000000000000000000000000000088
:10285000000000347454545454545C5C0000000074
:102860000000000000000000000000000000000068
:1028700000003474545C5C0004047C3C00000000E4
:102880000000000000000000000000000000000048
:10289000003474545C5C007C7C447C7C0000000050
:1028A0000000000000000000000000000000000028
:1028B000003474545C5C007C7C507C7C0000000024
:1028C0000000000000000000000000000000000008
:1028D00000003474545C5C00603C3C6040000000CC
:1028E00000000000000000000000000000000000E8
:1028F000003474545C5C007C7C5454540000000030
:1029000000000000000000000000000000000000C7
:102910003474545C18447C7C447C7C44000000008B
:1029200000000000000000000000000000000000A7
:102930003474545C5C0028785C5C782800000000EB
:102940000000000000000000000000000000000087
:102950000000047C7C44444444447C7C000000002F
:102960000000000000000000000000000000000067
:102970000000047C7C50505050547C7C00000000CF
:102980000000000000000000000000000000000047
:10299000007C7C507C7C40603C3C6060000000001F
:1029A0000000000000000000000000000000000027
:1029B0000000404020301C0C10306040000000003F
:1029C0000000000000000000000000000000000007
:1029D000004060301C5C70301C1C30604000000007
:1029E00000000000000000000000000000000000E7
:1029F00000000000387C444444447C38000000005F
:102A000000000000000000000000000000000000C6
:102A10000000444424341C1C3424444400000000BE
:102A200000000000000000000000000000000000A6
:102A30000000484828381C1C38284848000000007E
:102A40000000000000000000000000000000000086
:102A5000000000141414141414147C3C0000000032
:102A60000000000000000000000000000000000066
:102A7000000000043C7C54545454545400000000A2
:102A80000000000000000000000000000000000046
:102A9000000044447C7C44447C7C444400000000AE
:102AA0000000000000000000000000000000000026
:102AB00000000828785C5C5C5C7828080000000056
:102AC0000000000000000000000000000000000006
:102AD00000000000000000000000000000000000F6
:102AE00000000000000000000000000000000000E6
:102AF00004040404040404047C3C000000000000FE
:102B000000000000000000000000000000000004C1
:102B100004047C3C000404047C3C00000000000031
:102B200000000000000000000000000000000000A5
:102B30000404047C3C40603C1C7060000000000009
:102B40000000000000000000000000000000000481
:102B50003C7C4040404040404040000000000000BD
:102B60000000000000000000000000000000000461
:102B70003C7C40400044643C3C6444000000000055
:102B80000000000000000000000000000000000441
:102B90003C7C40404028785C5C78280000000000C5
:102BA000000000000000000000000000000000081D
:102BB0003878484848484848484800000000000025
:102BC0000000000000000000000000000000000005
:102BD00034745454545454545C5C0000000000009D
:102BE00000000000000000000000000000000000E5
:102BF0003474545C5C000404047C3C00000000005D
:102C00000000000000000000000000000000003490
:102C100074545C5C007C7C44447C7C0000000000BC
:102C200000000000000000000000000000000000A4
:102C30003474545C5C007C7C507C7C0000000000A0
:102C40000000000000000000000000000000000084
:102C50003474545C5C0040603C3C60400000000008
:102C60000000000000000000000000000000000064
:102C70003474545C5C007C7C5454540000000000AC
:102C80000000000000000000000000000000000044
:102C90003474545C18447C7C447C7C440000000008
:102CA00000000000000000000000000000000034F0
:102CB00074545C5C0028785C5C782800000000009C
:102CC0000000000000000000000000000000000004
:102CD000047C7C44444444447C7C000000000000AC
:102CE00000000000000000000000000000000004E0
:102CF0007C7C5050505050547C7C00000000000000
:102D000000000000000000000000000000000000C3
:102D10007C7C507C7C40603C3C606000000000009B
:102D200000000000000000000000000000000000A3
:102D3000404020301C0C10306040000000000000BB
:102D400000000000000000000000000000004060E3
:102D5000301C1C306060301C1C30604000000000E3
:102D60000000000000000000000000000000000063
:102D700000387C444444447C3800000000000000DB
:102D80000000000000000000000000000000000043
:102D9000444424341C1C342444440000000000003B
:102DA0000000000000000000000000000000000023
:102DB000484828381C1C38284848000000000000FB
:102DC0000000000000000000000000000000000003
:102DD00014141414141414147C3C0000000000009B
:102DE00000000000000000000000000000000000E3
:102DF000043C7C54545454545454000000000000CB
:102E000000000000000000000000000000000000C2
:102E100044447C7C44447C7C44440000000000002A
:102E200000000000000000000000000000000000A2
:102E30000828785C5C5C5C78280800000088618861
:102E400062886588688869886A886B8871887388F1
:102E50007488758876887788788879887B887C8874
:102E60007D888188828885888988918893889588DB
:102E700096889788A188A288A588A988B588B788E8
:102E8000C188C588C988E188E288E588E888E9883A
:102E9000EB88F188F388F588F688F788F888FB884E
:102EA000FC88FD894189458949895189538955891A
:102EB00056895789618962896389658968896989C1
:102EC000718973897589768977897B8981898589F3
:102ED000898993899589A189A289A589A889A989C0
:102EE000AB89AD89B089B189B389B589B789B8890A
:102EF000C189C289C589C989CB89D189D389D58935
:102F0000D789E189E589E989F389F689F78A418AD0
:102F1000428A458A498A518A538A558A578A618AE0
:102F2000658A698A738A758A818A828A858A888A8B
:102F3000898A8A8A8B8A908A918A938A958A978AC3
:102F4000988AA18AA28AA58AA98AB68AB78AC18ADA
:102F5000D58AE18AE28AE58AE98AF18AF38AF58BE1
:102F6000418B458B498B618B628B658B688B698B41
:102F70006A8B718B738B758B778B818BA18BA28BFB
:102F8000A58BA88BA98BAB8BB18BB38BB58BB78B78
:102F9000B88BBC8C618C628C638C658C698C6B8CFF
:102FA000718C738C758C768C778C7B8C818C828CFD
:102FB000858C898C918C938C958C968C978CA18C1C
:102FC000A28CA98CE18CE28CE38CE58CE98CF18CF1
:102FD000F38CF58CF68CF78D418D428D458D518D9E
:102FE000558D578D618D658D698D758D768D7B8D38
:102FF000818DA18DA28DA58DA78DA98DB18DB38D4C
:10300000B58DB78DB88DB98DC18DC28DC98DD68D59
:10301000D78DE18DE28DF78E418E458E498E518E92
:10302000538E578E618E818E828E858E898E908E84
:10303000918E938E958E978E988EA18EA98EB68E38
:10304000B78EC18EC28EC58EC98ED18ED38ED68ECE
:10305000E18EE58EE98EF18EF38F418F618F628F65
:10306000658F678F698F6B8F708F718F738F758F7F
:10307000778F7B8FA18FA28FA58FA98FB18FB38FF1
:10308000B58FB790619062906390659068906990F9
:103090006A906B907190739075907690779078901D
:1030A00079907B907D90819082908590899091908D
:1030B0009390959096909790A190A290A590A990AA
:1030C000B190B790E190E290E490E590E990EB90B8
:1030D000EC90F190F390F590F690F790FD9141917E
:1030E00042914591499151915391559156915791E2
:1030F00061916291659169917191739176917791E6
:103100007A9181918591A191A291A591A991AB917B
:10311000B191B391B591B791BC91BD91C191C59158
:10312000C991D692419245924992519253925592A9
:10313000619262926592699273927592779281928E
:103140008292859288928992919293929592979287
:10315000A192B692C192E192E592E992F192F39333
:10316000419342934993519353935793619362933D
:10317000659369936A936B93719373937593779344
:1031800078937C93819385938993A193A293A5933C
:10319000A993AB93B193B393B593B793BC94619454
:1031A000629463946594689469946A946B946C9443
:1031B00070947194739475947694779478947994C8
:1031C0007D94819482948594899491949394959418
:1031D00096949794A194E194E294E394E594E8940E
:1031E000E994EB94EC94F194F394F594F794F994B6
:1031F000FC95419542954595499551955395559521
:1032000056955795619565956995769577958195CC
:103210008595A195A295A595A895A995AB95AD95F0
:10322000B195B395B595B795B995BB95C195C5952C
:10323000C995E195F69641964596499651965396CD
:1032400055966196819682968596899691969396E3
:1032500095969796A196B696C196D796E196E596DD
:10326000E996F396F596F7974197459749975197C1
:103270005797619762976597689769976B9771976A
:103280007397759777978197A197A297A597A89716
:10329000A997B197B397B597B697B797B89861982C
:1032A00062986598699871987398759876987798E8
:1032B0007D98819882988598899891989398959807
:1032C00096989798E198E298E598E998EB98EC98A9
:1032D000F198F398F598F698F798FD9941994299E5
:1032E0004599499951995399559956995799619981
:1032F0007699A199A299A599A999B799C199C999BE
:10330000E19A419A459A819A829A859A899A909AE5
:10331000919A979AC19AE19AE59AE99AF19AF39A61
:10332000F79B619B629B659B689B699B719B739BF1
:10333000759B819B859B899B919B939BA19BA59B47
:10334000A99BB19BB39BB59BB79C619C629C659C00
:10335000699C719C739C759C769C779C789C7C9CEA
:103360007D9C819C829C859C899C919C939C959C36
:10337000969C979CA19CA29CA59CB59CB79CE19C0B
:10338000E29CE59CE99CF19CF39CF59CF69CF79CE7
:10339000FD9D419D429D459D499D519D539D559D3E
:1033A000579D619D629D659D699D719D739D759DF4
:1033B000769D779D819D859D939D959DA19DA29DC7
:1033C000A59DA99DB19DB39DB59DB79DC19DC59D71
:1033D000D79DF69E419E459E499E519E539E559E69
:1033E000579E619E659E699E739E759E779E819E87
:1033F000829E859E899E919E939E959E979EA19E5C
:10340000B69EC19EE19EE29EE59EE99EF19EF59EDE
:10341000F79F419F429F459F499F519F539F559FB3
:10342000579F619F629F659F699F719F739F759F63
:10343000779F789F7B9F7C9FA19FA29FA59FA99F1D
:10344000B19FB39FB59FB7A061A062A065A067A020
:1034500068A069A06AA06BA071A073A075A077A0F6
:1034600078A07BA07DA081A082A085A089A091A04A
:1034700093A095A096A097A098A0A1A0A2A0A9A073
:10348000B7A0E1A0E2A0E5A0E9A0EBA0F1A0F3A025
:10349000F5A0F7A0F8A0FDA141A142A145A149A135
:1034A00051A153A155A156A157A161A162A165A146
:1034B00069A175A176A177A179A181A1A1A1A2A1FC
:1034C000A4A1A5A1A9A1ABA1B1A1B3A1B5A1B7A187
:1034D000C1A1C5A1D6A1D7A241A245A249A253A28A
:1034E00055A257A261A265A269A273A275A281A288
:1034F00082A283A285A288A289A28AA28BA291A27B
:1035000093A295A297A29BA29DA2A1A2A5A2A9A2C5
:10351000B3A2B5A2C1A2E1A2E5A2E9A341A345A33A
:1035200049A351A355A361A365A369A371A375A37F
:10353000A1A3A2A3A5A3A8A3A9A3ABA3B1A3B3A32B
:10354000B5A3B6A3B7A3B9A3BBA461A462A463A4A3
:1035500064A465A468A469A46AA46BA46CA471A4FF
:1035600073A475A477A47BA481A482A485A489A450
:1035700091A493A495A496A497A49BA4A1A4A2A467
:10358000A5A4B3A4E1A4E2A4E5A4E8A4E9A4EBA45F
:10359000F1A4F3A4F5A4F7A4F8A541A542A545A577
:1035A00048A549A551A553A555A556A557A561A55B
:1035B00062A565A569A573A575A576A577A57BA563
:1035C00081A585A5A1A5A2A5A3A5A5A5A9A5B1A5E8
:1035D000B3A5B5A5B7A5C1A5C5A5D6A5E1A5F6A670
:1035E00041A642A645A649A651A653A661A665A630
:1035F00081A682A685A688A689A68AA68BA691A65C
:1036000093A695A697A69BA69CA6A1A6A9A6B6A694
:10361000C1A6E1A6E2A6E5A6E9A6F7A741A745A7A8
:1036200049A751A755A757A761A762A765A769A78B
:1036300071A773A775A7A1A7A2A7A5A7A9A7ABA7BD
:10364000B1A7B3A7B5A7B7A7B8A7B9A861A862A83B
:1036500065A869A86BA871A873A875A876A877A8AB
:103660007DA881A882A885A889A891A893A895A8D3
:1036700096A897A8A1A8A2A8B1A8E1A8E2A8E5A841
:10368000E8A8E9A8F1A8F5A8F6A8F7A941A957A9BB
:1036900061A962A971A973A975A976A977A9A1A938
:1036A000A2A9A5A9A9A9B1A9B3A9B7AA41AA61AA22
:1036B00077AA81AA82AA85AA89AA91AA95AA97AB74
:1036C00041AB57AB61AB65AB69AB71AB73ABA1AB56
:1036D000A2ABA5ABA9ABB1ABB3ABB5ABB7AC61AC6F
:1036E00062AC64AC65AC68AC69AC6AAC6BAC71AC38
:1036F00073AC75AC76AC77AC7BAC81AC82AC85AC92
:1037000089AC91AC93AC95AC96AC97ACA1ACA2ACA7
:10371000A5ACA9ACB1ACB3ACB5ACB7ACC1ACC5ACA5
:10372000C9ACD1ACD7ACE1ACE2ACE3ACE4ACE5AC59
:10373000E8ACE9ACEBACECACF1ACF3ACF5ACF6ACB2
:10374000F7ACFCAD41AD42AD45AD49AD51AD53AD6A
:1037500055AD56AD57AD61AD62AD65AD69AD71ADFD
:1037600073AD75AD76AD77AD81AD85AD89AD97ADF6
:10377000A1ADA2ADA3ADA5ADA9ADABADB1ADB3AD9E
:10378000B5ADB7ADBBADC1ADC2ADC5ADC9ADD7ADC2
:10379000E1ADE5ADE9ADF1ADF5ADF6AE41AE45AEAD
:1037A00049AE51AE53AE55AE61AE62AE65AE69AED6
:1037B00071AE73AE75AE77AE81AE82AE85AE88AEB9
:1037C00089AE91AE93AE95AE97AE99AE9BAE9CAEE0
:1037D000A1AEB6AEC1AEC2AEC5AEC9AED1AED7AE69
:1037E000E1AEE2AEE5AEE9AEF1AEF3AEF5AEF7AF07
:1037F00041AF42AF49AF51AF55AF57AF61AF62AFC5
:1038000065AF69AF6AAF71AF73AF75AF77AFA1AF97
:10381000A2AFA5AFA8AFA9AFB0AFB1AFB3AFB5AFCF
:10382000B7AFBCB061B062B064B065B069B071B040
:1038300073B076B077B07DB081B082B085B089B01A
:1038400091B093B096B097B0B7B0E1B0E2B0E5B048
:10385000E9B0EBB0F1B0F3B0F6B0F7B141B145B1BA
:1038600049B157B1A1B1A2B1A5B1A8B1A9B1ABB14C
:10387000B1B1B3B1B7B1C1B1C2B1C5B1D6B1E1B1A6
:10388000F6B241B245B249B251B253B261B281B25D
:1038900082B285B289B291B293B297B2A1B2B6B2F6
:1038A000C1B2E1B2E5B357B361B362B365B369B313
:1038B0006BB370B371B373B381B385B389B391B391
:1038C000A1B3A2B3A5B3A9B3B1B3B3B3B5B3B7B4FE
:1038D00061B462B465B466B467B469B46AB46BB415
:1038E00070B471B473B475B476B477B47BB47CB48B
:1038F00081B482B485B489B491B493B495B496B4C8
:1039000097B4A1B4A2B4A5B4A9B4ACB4B1B4B3B4DF
:10391000B5B4B7B4BBB4BDB4C1B4C5B4C9B4D3B401
:10392000E1B4E2B4E5B4E6B4E8B4E9B4EAB4EBB4C3
:10393000F1B4F3B4F4B4F5B4F6B4F7B4F8B4FAB43B
:10394000FCB541B542B545B549B551B553B555B5C9
:1039500057B561B562B563B565B569B56BB56CB59D
:1039600071B573B574B575B576B577B57BB57CB5FE
:103970007DB581B585B589B591B593B595B596B544
:10398000A1B5A2B5A5B5A9B5AAB5ABB5ADB5B0B54C
:10399000B1B5B3B5B5B5B7B5B9B5C1B5C2B5C5B5AE
:1039A000C9B5D1B5D3B5D5B5D6B5D7B5E1B5E2B5BD
:1039B000E5B5F1B5F5B5F7B641B642B645B649B687
:1039C00051B653B655B657B661B662B665B669B666
:1039D00071B673B675B677B681B682B685B689B656
:1039E0008AB68BB691B693B695B697B6A1B6A2B67F
:1039F000A5B6A9B6B1B6B3B6B6B6B7B6C1B6C2B675
:103A0000C5B6C9B6D1B6D3B6D7B6E1B6E2B6E5B655
:103A1000E9B6F1B6F3B6F5B6F7B741B742B745B771
:103A200049B751B753B755B757B759B761B762B729
:103A300065B769B76FB771B773B775B777B778B749
:103A400079B77AB77BB77CB77DB781B785B789B7C8
:103A500091B795B7A1B7A2B7A5B7A9B7AAB7ABB7A2
:103A6000B0B7B1B7B3B7B5B7B6B7B7B7B8B7BCB8F3
:103A700061B862B865B867B868B869B86BB871B84A
:103A800073B875B876B877B878B881B882B885B8A1
:103A900089B891B893B895B896B897B8A1B8A2B8B4
:103AA000A5B8A7B8A9B8B1B8B7B8C1B8C5B8C9B8AA
:103AB000E1B8E2B8E5B8E9B8EBB8F1B8F3B8F5B8F1
:103AC000F7B8F8B941B942B945B949B951B953B98B
:103AD00055B957B961B965B969B971B973B976B9E9
:103AE00077B981B9A1B9A2B9A5B9A9B9ABB9B1B929
:103AF000B3B9B5B9B7B9B8B9B9B9BDB9C1B9C2B92E
:103B0000C9B9D3B9D5B9D7B9E1B9F6B9F7BA41BA94
:103B100045BA49BA51BA53BA55BA57BA61BA62BA34
:103B200065BA77BA81BA82BA85BA89BA8ABA8BBAC3
:103B300091BA93BA95BA97BAA1BAB6BAC1BAE1BA6C
:103B4000E2BAE5BAE9BAF1BAF3BAF5BB41BB45BB93
:103B500049BB51BB61BB62BB65BB69BB71BB73BB7E
:103B600075BB77BBA1BBA2BBA5BBA8BBA9BBABBBAD
:103B7000B1BBB3BBB5BBB7BBB8BBBBBBBCBC61BC0B
:103B800062BC65BC67BC69BC6CBC71BC73BC75BCF9
:103B900076BC77BC81BC82BC85BC89BC91BC93BC23
:103BA00095BC96BC97BCA1BCA5BCB7BCE1BCE2BCB3
:103BB000E5BCE9BCF1BCF3BCF5BCF6BCF7BD41BD4E
:103BC00057BD61BD76BDA1BDA2BDA5BDA9BDB1BD9D
:103BD000B3BDB5BDB7BDB9BDC1BDC2BDC9BDD6BD03
:103BE000E1BDF6BE41BE45BE49BE51BE53BE77BE25
:103BF00081BE82BE85BE89BE91BE93BE97BEA1BE68
:103C0000B6BEB7BEE1BF41BF61BF71BF75BF77BF71
:103C1000A1BFA2BFA5BFA9BFB1BFB3BFB7BFB8BF48
:103C2000BDC061C062C065C067C069C071C073C0FB
:103C300075C076C077C078C081C082C085C089C099
:103C400091C093C095C096C097C0A1C0A5C0A7C0A1
:103C5000A9C0B1C0B7C0E1C0E2C0E5C0E9C0F1C0D1
:103C6000F3C0F5C0F6C0F7C141C142C145C149C169
:103C700051C153C155C157C161C165C176C181C12F
:103C800085C197C1A1C1A2C1A5C1A9C1B1C1B3C11B
:103C9000B5C1B7C1C1C1C5C1C9C1D7C241C245C201
:103CA00049C251C253C255C257C261C271C281C218
:103CB00082C285C289C291C293C295C297C2A1C273
:103CC000B6C2C1C2C5C2E1C2E5C2E9C2F1C2F3C215
:103CD000F5C2F7C341C345C349C351C357C361C309
:103CE00062C365C369C371C373C375C377C3A1C31B
:103CF000A2C3A5C3A8C3A9C3AAC3B1C3B3C3B5C351
:103D0000B7C461C462C465C469C471C473C475C4F2
:103D100077C481C482C485C489C491C493C495C442
:103D200096C497C4A1C4A2C4B7C4E1C4E2C4E5C4A4
:103D3000E8C4E9C4F1C4F3C4F5C4F6C4F7C541C589
:103D400042C545C549C551C553C555C557C561C5CA
:103D500065C569C571C573C575C576C577C581C5A6
:103D6000A1C5A2C5A5C5A9C5B1C5B3C5B5C5B7C5CA
:103D7000C1C5C2C5C5C5C9C5D1C5D7C5E1C5F7C689
:103D800041C649C661C681C682C685C689C691C676
:103D900093C695C697C6A1C6A5C6A9C6B7C6C1C6CD
:103DA000D7C6E1C6E2C6E5C6E9C6F1C6F3C6F5C6A2
:103DB000F7C741C745C749C751C761C762C765C78C
:103DC00069C771C773C777C7A1C7A2C7A5C7A9C766
:103DD000B1C7B3C7B5C7B7C861C862C865C869C845
:103DE0006AC871C873C875C876C877C881C882C8E0
:103DF00085C889C891C893C895C896C897C8A1C8EE
:103E0000B7C8E1C8E2C8E5C8E9C8EBC8F1C8F3C85B
:103E1000F5C8F6C8F7C941C942C945C949C951C918
:103E200053C955C957C961C965C976C981C985C909
:103E3000A1C9A2C9A5C9A9C9B1C9B3C9B5C9B7C9D9
:103E4000BCC9C1C9C5C9E1CA41CA45CA55CA57CAD0
:103E500061CA81CA82CA85CA89CA91CA93CA95CAE7
:103E600097CAA1CAB6CAC1CAE1CAE2CAE5CAE9CAC2
:103E7000F1CAF3CAF7CB41CB45CB49CB51CB57CB9A
:103E800061CB62CB65CB68CB69CB6BCB71CB73CB92
:103E900075CB81CB85CB89CB91CB93CBA1CBA2CB5F
:103EA000A5CBA9CBB1CBB3CBB5CBB7CC61CC62CCD6
:103EB00063CC65CC69CC6BCC71CC73CC75CC76CC37
:103EC00077CC7BCC81CC82CC85CC89CC91CC93CC6B
:103ED00095CC96CC97CCA1CCA2CCE1CCE2CCE5CCD5
:103EE000E9CCF1CCF3CCF5CCF6CCF7CD41CD42CD3D
:103EF00045CD49CD51CD53CD55CD57CD61CD65CDB6
:103F000069CD71CD73CD76CD77CD81CD89CD93CD72
:103F100095CDA1CDA2CDA5CDA9CDB1CDB3CDB5CDFA
:103F2000B7CDC1CDD7CE41CE45CE61CE65CE69CE1F
:103F300073CE75CE81CE82CE85CE88CE89CE8BCE05
:103F400091CE93CE95CE97CEA1CEB7CEE1CEE5CE93
:103F5000E9CEF1CEF5CF41CF45CF49CF51CF55CFA7
:103F600057CF61CF65CF69CF71CF73CF75CFA1CF59
:103F7000A2CFA5CFA9CFB1CFB3CFB5CFB7D061D0A6
:103F800062D065D069D06ED071D073D075D077D043
:103F900081D082D085D089D091D093D095D096D041
:103FA00097D0A1D0B7D0E1D0E2D0E5D0E9D0EBD026
:103FB000F1D0F3D0F5D0F7D141D142D145D149D19B
:103FC00051D153D155D157D161D162D165D169D188
:103FD00071D173D175D176D177D181D185D189D184
:103FE00093D1A1D1A2D1A5D1A9D1AED1B1D1B3D113
:103FF000B5D1B7D1BBD1C1D1C2D1C5D1C9D1D5D12C
:10400000D7D1E1D1E2D1E5D1F5D1F7D241D242D237
:1040100045D249D253D255D257D261D265D269D254
:1040200073D275D281D282D285D289D28ED291D2E8
:1040300095D297D2A1D2A5D2A9D2B1D2B7D2C1D2AC
:10404000C2D2C5D2C9D2D7D2E1D2E2D2E5D2E9D228
:10405000F1D2F3D2F5D2F7D341D342D345D349D3EA
:1040600051D355D357D361D362D365D367D368D3C4
:1040700069D36AD371D373D375D377D37BD381D309
:1040800085D389D391D393D397D3A1D3A2D3A5D3E7
:10409000A9D3B1D3B3D3B5D3B7000000000000005B
:1040A000000000000000000000F0082808082808B0
:1040B000F00708090B0B090807F0F8D8F8F8D8F84A
:1040C000F0070F0E0C0C0E0F0700F0F8F8F0F8F8E0
:1040D000F0000003070F0703000080C0E0F0E0C01D
:1040E00080000001030703010000C0C0F8F8F8C019
:1040F000C000030B090F090B0300C0E0F0F8F0E06B
:10410000C000010B0B0F0B0B01000080C0C0800032
:10411000000000010303010000FEFE7E3E3E7EFE25
:10412000FE7F7F7E7C7C7E7F7F00C060202060C021
:10413000000003060404060300FE3E9EDEDE9E3EF3
:10414000FE7F7C797B7B797C7F000080C0E8B8189B
:104150007800070F08080F07000070F88888F870CB
:10416000000002020F0F020200000000F8F83060A9
:10417000C000060F0F070000000000F8F82828F81C
:10418000F800070703000E0F070010C0E028E0C08A
:1041900010000401030A03010400F8F0E0C0C0802D
:1041A00080000F070301010000008080C0C0E0F024
:1041B000F8000000010103070F002030F8F830205C
:1041C000000002060F0F0602000070F8F800F8F871
:1041D0007000000D0D000D0D0070F888F8F808F85B
:1041E000F80000000F0F000F0F00D8FC2464CC88EB
:1041F0000000081913121F0D00000000000000004D
:1042000000000F0F0F0F0F0F0F002030F8F83020B5
:10421000000012161F1F161200002030F8F8302080
:10422000000000000F0F000000000000F8F8000080
:10423000000002060F0F0602000080808080E0C0B0
:104240008000000000000301000080C0E08080804A
:1042500080000001030000000000C0C0000000005A
:1042600000000303020202020280C0E08080E0C07E
:10427000800001030000030100000000C0F8C0003E
:1042800000000C0F0F0F0F0F0C001878F8F8F878DB
:1042900018000000010F01000000000000000000F5
:1042A000000000000000000000000070F8F870003E
:1042B000000000000D0D0000000020381820381804
:1042C0000000000000000000000020F8F820F8F8CE
:1042D0002000020F0F020F0F020060F09C9CB02024
:1042E000000002061C1C07030000207070A0C060C4
:1042F0002000040603050E0E040000B0F8C878B0D4
:104300008000070F0809070F080000203818000078
:104310000000000000000000000000E0F0180800AD
:1043200000000003070C08000000000818F0E0007F
:10433000000000080C070300000080A0E0C0E0A01F
:10434000800000020301030200008080E0E0808022
:104350000000000003030000000000000000000057
:10436000000000101C0C0000000080808080808015
:10437000000000000000000000000000000000003D
:10438000000000000C0C0000000000000080C06075
:1043900030000C06030100000000F0F888C8F8F0B7
:1043A0000000070F09080F0700000010F8F80000D0
:1043B000000000080F0F0800000010180888F870AF
:1043C00000000C0E0B0908080000080848E8B8189F
:1043D0000000040C08080F070000C0E030F8F800E7
:1043E00000000303020F0F02000078784848C888D5
:1043F0000000040C08080F070000E0F0988888000F
:104400000000070F08080F070000080888C8783860
:104410000000000F0F000000000070F88888F8709E
:104420000000070F08080F07000070F88888F8F0F0
:1044300000000008080C07030000000030300000F6
:104440000000000006060000000000003030000000
:10445000000000080E060000000080C06030180850
:104460000000000103060C080000404040404040AE
:104470000000020202020202000008183060C08040
:104480000000080C060301000000101888C87830EE
:10449000000000000D0D00000000F0F808C8F8F062
:1044A0000000070F080B0B010000E0F01818F0E007
:1044B00000000F0F01010F0F0000F8F88888F87056
:1044C00000000F0F08080F070000F0F80808181088
:1044D0000000070F08080C040000F8F80808F8F0BE
:1044E00000000F0F08080F070000F8F888888808F8
:1044F00000000F0F080808080000F8F888888808EE
:1045000000000F0F000000000000F0F80808080885
:104510000000070F08090F0F0000F8F88080F8F876
:1045200000000F0F00000F0F00000008F8F808004F
:10453000000000080F0F0800000000000000F8F85D
:104540000000040C08080F070000F8F880E0781855
:1045500000000F0F00030F0C0000F8F8000000002F
:1045600000000F0F080808080000F8F830E030F8E5
:10457000F8000F0F0000000F0F00F8F8E080F8F8C7
:1045800000000F0F00030F0F0000F0F80808F8F00C
:104590000000070F08080F070000F8F88888F87077
:1045A00000000F0F000000000000F0F80808F8F00D
:1045B0000000070F08081F170000F8F88888F87037
:1045C00000000F0F01030E0C000070F8888898108F
:1045D0000000040C08080F0700000808F8F8080895
:1045E000000000000F0F00000000F8F80000F8F8CD
:1045F0000000070F08080F070000F8F80000F8F89F
:10460000000003070C0C07030000F8F8008000F816
:10461000F8000F0F0603060F0F003878C0C0783877
:1046200000000E0F01010F0E000078F88080F8786E
:10463000000000000F0F00000000080888C878384C
:1046400000000E0F09080808000000F8F80808002C
:104650000000000F0F08080000003060C08000005C
:1046600000000000000103060C00000808F8F80034
:1046700000000008080F0F00000010180C0C1810A4
:10468000000000000000000000000000000000002A
:1046900000202020202020202000000018382000AA
:1046A0000000000000000000000000404040C0800A
:1046B0000000060F09090F0F0000F8F84040C08005
:1046C00000000F0F08080F07000080C04040C080A6
:1046D0000000070F08080C04000080C04040F8F8F4
:1046E0000000070F08080F0F000080C04040C08086
:1046F0000000070F0A0A0B0B000080F0F8889810E2
:104700000000000F0F000000000080C04040C0808B
:104710000000074F48487F3F0000F8F84040C08045
:1047200000000F0F00000F0F00000040D8D800005D
:10473000000000080F0F0800000000000040D8D85B
:104740000000001030203F1F0000F8F80080C0403B
:1047500000000F0F03070C0800000008F8F8000025
:10476000000000080F0F08000000C0C0C080C0C0DB
:1047700080000F0F0007000F0F00C0C04040C08036
:1047800000000F0F00000F0F000080C04040C080ED
:104790000000070F08080F070000C0C04040C0809D
:1047A00000007F7F08080F07000080C04040C0C0A5
:1047B0000000070F08087F7F0000C0C080C0404095
:1047C00000000F0F01000000000080C0404040408A
:1047D0000000080909090F06000040F8F8404000F1
:1047E000000000070F080C040000C0C00000C0C09B
:1047F0000000070F08080F0F0000C0C00000C0C075
:10480000000003070C0C07030000C0C0000000C03C
:10481000C000070F0C070C0F070040C0800080C0CD
:104820004000080C0703070C0800C0C00000C0C00F
:104830000000074F48487F3F0000404040C0C04054
:1048400000000C0E0B09080800000080F078080832
:1048500000000000070F0808000000007878000042
:10486000000000000F0F0000000000080878F08032
:1048700000000008080F0700000080C040C080C092
:1048800040000000000000000000000070888888E0
:104890007000000000000000006E616E00696E662E
:1048A0000000407A10F35A00A0724E18090010A5BB
:1048B000D4E80000E87648170000E40B540200003A
:1048C000CA9A3B000000E1F50500008096980000C0
:1048D0000040420F000000A08601000000102700E9
:1048E000000000E803000000006400000000000A6F
:1048F00000000000000100000000002C76D888DCD9
:10490000674F0823DFC1DFAE59E1B1B796E5E3E4B5
:1049100053C63AE651997696E8E6C28426EB898C2E
:104920009B62ED407C6FFCEFBC9C9F40F2BAA56F90
:10493000A5F490055A2AF75C936B6CF9676DC11B5F
:10494000FCE0E40D47FEF520E6B500D0ED902E0327
:1049500000943577050080841E080000204E0A0070
:104960000000C80C333333330F986E12831141EFBC
:104970008D2114893BE65516CFFEE6DB18D1844B1A
:10498000381BF77C1D901DA4BBE424203284725E8A
:10499000228100C9F124ECA1E53D270011241FBEAE
:1049A000CFEFD0E1DEBFCDBF1BE0A0E0B1E0E2EE93
:1049B000F5EC00E00BBF02C007900D92AE33B107DB
:1049C000D9F71CE0AEE3BBE001C01D92A335B107EF
:1049D000E1F70E9491590C94EF620C9400009FEF54
:1049E0009ABB1BBA87EF87BB80EC88BB94BB88E57A
:1049F00085BB89EF81BB12BA89E382B913B81092E3
:104A00006100109262001092640010926500089597
:104A100090E007C00F920F900F920F900F920F909F
:104A20009F5F9817B8F308950F931F93CF93DF9369
:104A30008C01C0E0D0E00DC08AEF0E9408258AEF0B
:104A40000E9408258AEF0E9408258AEF0E94082507
:104A50002196C017D10780F3DF91CF911F910F915D
:104A60000895AA9A82E390E00E941425AA980895D6
:104A70000E94312584E690E00E9414250E94312591
:104A800084E690E00E9414250E94312508951F932A
:104A9000109163001F7080913E0B1F3049F48823F2
:104AA00081F084E190E00E94142510923E0B09C031
:104AB000882311F01FE005C00E94312581E080931A
:104AC0003E0B812F1F9108951F93109163001F705B
:104AD00080913E0B1F3049F4882391F084E190E0EF
:104AE0000E94142510923E0B0BC0882311F01FE08A
:104AF00007C084E190E00E94142581E080933E0B82
:104B0000812F1F910895A898A9988BBBA89A0F92FE
:104B10000F90A89882E30E940825089588E30E94D8
:104B200083258CE00E94832586E00E94832581E016
:104B30000E94832582E090E00E9414250895A898A1
:104B4000A99A8BBBA89A0F920F90A89882E30E9413
:104B500008250895CF93DF93EB010E94832503C0BE
:104B60000E949F25219688818823D1F7DF91CF91DC
:104B700008951F93CF93DF93EC01162F115010313E
:104B800068F4CE01012E02C0969587950A94E2F74B
:104B90008170805D0E949F25115098F7DF91CF9121
:104BA0001F9108958F929F92AF92BF92CF92DF9202
:104BB000EF92FF920F931F934B015C01C42ED22EF4
:104BC000822F8150893008F047C081E0E82EF12C17
:104BD000012D112D0AC0C801B7012AE030E040E0E4
:104BE00050E00E94E8607B018C01DA94A1F7DC2C94
:104BF0002EC0B401C501A80197010E943A61222389
:104C000061F4DD2051F481E0E816F104010511059D
:104C100021F080E20E949F2506C0822F805D0E94C5
:104C20009F25DD24D394B401C501A80197010E94FA
:104C30003A614B015C01C801B7012AE030E040E075
:104C400050E00E943A61C901DA017C018D01E11452
:104C5000F1040105110569F61F910F91FF90EF9086
:104C6000DF90CF90BF90AF909F908F9008955F920C
:104C70006F927F928F929F92AF92BF92CF92DF926C
:104C8000EF92FF920F931F937B018C01842E922E43
:104C9000822F8150893008F061C017FD04C08BE27B
:104CA0000E949F250BC08DE20E949F2510950095C4
:104CB000F094E094E11CF11C011D111D91E0A92E5E
:104CC000B12CC12CD12C0AC0C601B5012AE030E0BC
:104CD00040E050E00E94E8605B016C019A94A1F70B
:104CE000582C37C09E2C8F2C702E612EB701C80116
:104CF000A60195010E943A61222361F4552051F4E6
:104D000081E0A816B104C104D10421F080E20E9420
:104D10009F2506C0822F805D0E949F2555245394B5
:104D2000692D782D872D962DA60195010E943A6157
:104D3000AC01CB01DA017C018D01C601B5012AE08D
:104D400030E040E050E00E943A61C901DA015C01C4
:104D50006D01A114B104C104D10421F61F910F917A
:104D6000FF90EF90DF90CF90BF90AF909F908F908B
:104D70007F906F905F900895CF92DF92EF92FF92B5
:104D80001F936B017C01842F81508830F8F4142F1D
:104D90001BC0812F90E00197880F991F880F991FE2
:104DA000A701960104C056954795379527958A9592
:104DB000D2F7DA01C9018F708A3010F4805D01C02A
:104DC000895C0E949F251150112319F71F91FF90B4
:104DD000EF90DF90CF900895CF92DF92EF92FF9205
:104DE0001F936B017C01142F842F8150883020F594
:104DF00080E30E949F2588E70E949F251BC0812F8A
:104E000090E00197880F991F880F991FA7019601BD
:104E100004C056954795379527958A95D2F7DA01BC
:104E2000C9018F708A3010F4805D01C0895C0E94D6
:104E30009F251150112319F71F91FF90EF90DF90DC
:104E4000CF9008957F928F929F92AF92BF92CF9210
:104E5000DF92EF92FF920F931F935B016C01742E10
:104E6000822E442309F46AC0222309F467C0922EDB
:104E7000940E89E0891508F461C041E0E42EF12C1C
:104E8000012D112D0AC0C801B7012AE030E040E031
:104E900050E00E94E8607B018C019A94A1F7C60162
:104EA000B50120E030E040E251E40E941E5C5B016D
:104EB0006C018A94A1F720E030E040E05FE30E94BB
:104EC000535A0E94275B4B015C01CC24DD24D39410
:104ED00030C0B401C501A80197010E943A612223A4
:104EE00041F4CC2031F4D71421F080E20E949F25B8
:104EF0000BC0822F805D0E949F25D71419F48EE28B
:104F00000E949F25CC24C394B401C501A801970138
:104F10000E943A614B015C01C801B7012AE030E010
:104F200040E050E00E943A61C901DA017C018D0144
:104F3000D394E114F1040105110559F61F910F9165
:104F4000FF90EF90DF90CF90BF90AF909F908F90A9
:104F50007F9008957F928F929F92AF92BF92CF924F
:104F6000DF92EF92FF920F931F937B018C01742EBF
:104F7000822E442309F47DC0222309F47AC0922EA4
:104F8000940E89E0891508F474C0C801B70120E0C7
:104F900030E040E050E00E941A5C882324F08BE26D
:104FA0000E949F2507C08DE20E949F2517FB109548
:104FB00017F9109551E0A52EB12CC12CD12C0AC0A7
:104FC000C601B5012AE030E040E050E00E94E86010
:104FD0005B016C019A94A1F7C801B70120E030E0B1
:104FE00040E251E40E941E5C7B018C018A94A1F78F
:104FF00020E030E040E05FE30E94535A0E94275BCC
:105000004B017C0111E000E02FC0B401C701A601F3
:1050100095010E943A61222341F4002331F41715CF
:1050200021F080E20E949F250AC0822F805D0E94AD
:105030009F25171519F48EE20E949F2501E0B40107
:10504000C701A60195010E943A614B017C01C6018E
:10505000B5012AE030E040E050E00E943A61C90129
:10506000DA015C016D011F5FA114B104C104D10418
:1050700061F61F910F91FF90EF90DF90CF90BF905E
:10508000AF909F908F907F9008951BBA90E595BB4D
:1050900028E525BB8BBB98E195BB88E085BB95BB1C
:1050A00025BB08959BBB90E795BB28E725BB8BBB31
:1050B00098E395BB88E285BB95BB25BB08950F930C
:1050C0001F938B010E944528C8010E9452281F91FE
:1050D0000F9108950F931F93CF93DF93EC018B01F2
:1050E0008091260B8035B9F4C03FD10588F581E069
:1050F0006034780768F582E060E070E00E945F2825
:1051000083E0BE010E945F2886E0612F70E00E946C
:105110005F28107016C081E0C034D807C8F4603F23
:105120007105B0F482E06D2F70E00E945F28D070AE
:1051300083E0BE010E945F2886E060E070E00E948C
:105140005F2887E0B8010E945F2882E20E9445281C
:10515000DF91CF911F910F910895EF92FF921F93CE
:10516000CF93DF937C0180E090E060E070E00E94EC
:105170006A28C0E0D0E00BC0C7010E9452281F5F20
:10518000103FD1F7219681E0C034D80711F010E02C
:10519000F3CFDF91CF911F91FF90EF90089580E0C2
:1051A00090E00E94AD280895AF9A85E090E00E94BB
:1051B0001425AF9888E790E00E94142582E060E013
:1051C00070E00E945F2883E060E070E00E945F284A
:1051D00084E060E070E00E945F2885E06FEE70E0A0
:1051E0000E945F2886E060E070E00E945F2887E010
:1051F00060E070E00E945F2888E061E070E00E945B
:105200005F2889E06FE370E00E945F2881E066E03C
:1052100070E00E945F2886E168E070E00E945F28ED
:1052200088E160E070E00E945F2880E765E670E05A
:105230000E945F2883E265E970E00E945F2884E2B3
:1052400065E970E00E945F2885E26FEF70E00E94E0
:105250005F2887E262E070E00E945F2888E262E0F7
:1052600070E00E945F2889E262E070E00E945F289F
:105270008AE262E070E00E945F288CE262E070E007
:105280000E945F288DE262E070E00E945F288AE35E
:1052900061E070E00E945F288BE361E070E00E94B3
:1052A0005F288CE360EF70E00E945F288DE360E090
:1052B00070E00E945F2884E190E00E94142585E35D
:1052C00068E370E00E945F2886E368E770E00E9470
:1052D0005F288EE368E370E00E945F2880E46FE05F
:1052E00070E00E945F2881E460EF70E00E945F2818
:1052F00089E169E470E00E945F2883E96FE070E073
:105300000E945F288AE090E00E94142580E260E419
:1053100070E00E945F288DE167E070E00E945F28E6
:105320008AE090E00E9414258EE160E070E00E9427
:105330005F288FE164E070E00E945F2884E460E40D
:1053400070E00E945F2885E462E170E00E945F28BF
:105350008AE090E00E9414258CE164E070E00E94F5
:105360005F2884E190E00E94142583E460E870E007
:105370000E945F2885E090E00E9414258BE168E19F
:1053800070E00E945F2888E290E00E9414258BE183
:1053900060E170E00E945F2888E290E00E9414259E
:1053A00086E464EA70E00E945F2887E463E570E0C9
:1053B0000E945F2888E460E170E00E945F2889E431
:1053C0006FE570E00E945F288AE464E070E00E946C
:1053D0005F288BE46FE370E00E945F288CE462E05A
:1053E00070E00E945F288DE466EF70E00E945F2805
:1053F0008EE462E170E00E945F288FE46CE470E06C
:105400000E945F2880E566E470E00E945F2881E5E5
:1054100064E470E00E945F2880E96FE770E00E941A
:105420005F2886E264E070E00E945F2888E290E0F6
:105430000E94142586E264E270E00E945F2886E202
:105440006CE270E00E945F2888E290E00E941425E0
:1054500086E26CE370E00E945F2887E562E070E01E
:105460000E945F2885E560E070E00E945F288EEF73
:105470006AE570E00E945F2887E560E070E00E94C6
:105480005F280E94CF28089580933C0C6093450BC1
:1054900008959093500B80934F0B7093560B60932D
:1054A000550B0895EF92FF920F931F93CF93DF93C5
:1054B000EC018B017A018091260B8035B9F4C03F55
:1054C000D105B8F581E06034780798F582E060E0B6
:1054D00070E00E945F2883E0BE010E945F2886E0A2
:1054E000612F70E00E945F28107016C081E0C03408
:1054F000D807F8F4603F7105E0F482E06D2F70E0AA
:105500000E945F28D07083E0BE010E945F2886E081
:1055100060E070E00E945F2887E0B8010E945F2889
:1055200081E2E81688E0F80621F082E2B7010E94E5
:105530005F28DF91CF911F910F91FF90EF90089519
:1055400086E168E070E00E945F2882E060E070E041
:105550000E945F2883E060E070E00E945F2884E0A2
:1055600060E070E00E945F2885E06FEE70E00E94CE
:105570005F2886E060E070E00E945F2887E060E0DE
:1055800070E00E945F2888E061E070E00E945F2880
:1055900089E06FE370E00E945F288EE18093270B23
:1055A00088E28093280B80E58093260B089586E19E
:1055B00068E670E00E945F2882E060E070E00E9490
:1055C0005F2883E060E070E00E945F2884E061E093
:1055D00070E00E945F2885E06FE370E00E945F2822
:1055E00086E060E070E00E945F2887E060E070E0A5
:1055F0000E945F2888E060E070E00E945F2889E0F8
:105600006FEE70E00E945F2888E28093270B8EE1A6
:105610008093280B8CE48093260B08959C0188E0EE
:105620002132380719F410923F0B089581E08093DE
:105630003F0B3093300C20932F0C08959C0188E091
:105640002132380719F41092400B089581E08093BD
:10565000400B3093520C2093510C08959C0188E02C
:105660002132380719F41092410B089581E080939C
:10567000410B3093370C2093360C08952F923F92B4
:105680005F926F927F928F929F92AF92BF92CF92D2
:10569000DF92EF92FF920F931F93DF93CF93CDB7DB
:1056A000DEB7C250D1400FB6F894DEBF0FBECDBFFB
:1056B000082F10E0C0904F0BD090500BE090550B8E
:1056C000F090560B980144E0220F331F4A95E1F702
:1056D00027563F4BDE015196B90140E050E05E0194
:1056E0000894A11CB11CFB018491FA0195E0EE0F16
:1056F000FF1F9A95E1F7EA0DFB1D80FF03C0D182E1
:10570000C08202C0F182E0823296EA17FB0711F0F4
:105710008695F3CF4F5F5F4F6F5F7F4FDF019096AE
:105720004830510501F7380154E0660C771C5A9552
:10573000E1F781EA90E4680E791E41E2242E312CD3
:105740002C0E3D1EB301D10140E050E08E010F5FF1
:105750001F4FFB018491FA0195E0EE0FFF1F9A9510
:10576000E1F77096E00FF11F80FF03C0D182C08285
:1057700002C0F182E0823296EA17FB0711F08695AB
:10578000F3CF4F5F5F4F6F5F7F4FDF0190964830E1
:105790005105F9F68091410B813009F075C0809078
:1057A000360C9090370CA0E0B0E0F9019491F30131
:1057B0008491D82ECC24A601490F511D5A01B694CC
:1057C000A794C9010196CF5FDE4F99838883C150AA
:1057D000D140FC019491275F3F4FF9018491182F2C
:1057E00000E07801E90EF11C2A503040F901949153
:1057F000285F3F4FF9018491782F60E09B01290FCA
:10580000311DFD0165E0EE0FFF1F6A95E1F781E0B4
:1058100090E08C0F9D1FE80FF91F542E40FD14C01F
:10582000A0FE02C09182808250FE02C091828082DE
:10583000E0FE04C0A73011F09182808220FF04C0F6
:10584000AA2311F0918280823296E215F30551F07D
:10585000B694A794F694E79436952795542E5695CA
:105860004795DCCF11960894611C711CE0E2F0E0D2
:105870002E0E3F1EA830B10539F0CF5FDE4F2881D4
:105880003981C150D14091CF90913C0C8091270B30
:10589000981788F010923C0C2091450B2E5F2093B6
:1058A000450B30E08091280B90E0019728173907CD
:1058B00014F01092450B8091400B813079F4809167
:1058C000510C9091520CFE017F969E01215E3E4F3D
:1058D00091838083B096E217F307D1F780913F0B55
:1058E000813031F490913C0C80914A0C981739F03A
:1058F000CC24DD245E010894A11CB11C41C0909110
:10590000450B8091480B981799F780912F0C909137
:10591000300CFE017D969E01235E3E4F9183808375
:1059200093838283B096E217F307C1F7E1CF8091AA
:105930003C0C90E0F3E0880F991FFA95E1F7609135
:10594000450B70E0E3E0660F771FEA95E1F76C0D19
:105950007D1DF801408151818E0D9F1D0E94522AAC
:105960000894E11CF11C005E1F4FF8E0EF16F104F3
:10597000F1F60894C11CD11C80E1C816D10441F095
:105980008601000F111F0A0D1B1DEE24FF24CFCF2F
:1059900080913C0C8F5F80933C0CCE5FDE4F0FB646
:1059A000F894DEBF0FBECDBFCF91DF911F910F9155
:1059B000FF90EF90DF90CF90BF90AF909F908F902F
:1059C0007F906F905F903F902F9008959C01815A37
:1059D000904B8E55984118F0EFEFFFEF1BC0422F10
:1059E00050E0415451448EE5389FC0011124480FC6
:1059F000591F440F551FCA01835C914DFC0124912E
:105A0000922F80E0425C514DFA012491E22FF0E0A8
:105A1000E82BF92BCF0108952F923F924F925F927E
:105A20006F927F928F929F92AF92BF92CF92DF92AE
:105A3000EF92FF920F931F93DF93CF93CDB7DEB713
:105A4000C052D2400FB6F894DEBF0FBECDBFAC013E
:105A5000892F9927869586958F71907086559F4FCF
:105A6000FC012491CA01B5E096958795BA95E1F7B6
:105A70008F71907081549F4FFC01E4904F71507072
:105A800043525F4FFA01D4908E2D90E0DD2061F4F7
:105A900085509F4FFC0184912130C9F02031B9F02D
:105AA000982F00E011E016C0FC01EF5EFE4F34912C
:105AB000213021F0203111F013E001C012E0895DA6
:105AC0009E4FFC018491932FF82E01E004C0982F83
:105AD00000E010E0FF245E010894A11CB11C80E2EC
